:020000040800F2
:10000000780D0020C5010008A1220008731D00081A
:1000100000000000000000000000000000000000E0
:10002000000000000000000000000000CF240008D5
:100030000000000000000000CD240008D1240008CA
:10004000D701000800000000D7010008D701000810
:10005000D7010008D7010008D7010008D701000820
:1000600000000000D7010008D7010008D7010008F0
:10007000D7010008D7010008D701000800000000E0
:100080007125000800000000000000006125000844
:1000900000000000D7010008D7010008D7010008C0
:1000A000D7010008D7010008D7010008D7010008D0
:1000B000D701000800000000000000000000000060
:1000C00000F002F800F052F80CA030C808382418EC
:1000D0002D18A246671EAB4654465D46AC4201D180
:1000E00000F044F87E460F3E0FCCB6460126334260
:1000F00000D0FB1AA246AB46334318478451000098
:10010000A4510000103A02D378C878C1FAD8520737
:1001100001D330C830C101D504680C6070470000BD
:100120000023002400250026103A01D378C1FBD813
:10013000520700D330C100D50B60704710B5642959
:1001400002D100F071F810BD6F2902D100F0C4F89F
:1001500010BD782902D100F001F910BD002010BDBA
:100160001FB500F0F5F91FBD10B510BD00F073FB11
:100170001146FFF7F5FF02F0A9FC00F08BFB03B47A
:10018000FFF7F2FF03BC00F091FB000030B40C4914
:100190000C684A6823681068C0181060241D121D7E
:1001A0008C4207D28A4208D20C604A6030BC4000C0
:1001B000400870470C00DC3CF6E70A00DC3AF3E745
:1001C0000C0700200748804707480047FEE7FEE786
:1001D000FEE7FEE7FEE7FEE704480549054A064B51
:1001E000704700005D250008C10000087807002066
:1001F000780D002078090020780900200FB41CB584
:10020000084B06AA7B4469460090059800F0F7FA6F
:1002100004460020694600F005FB20461CBC08BCD3
:1002200004B018471D060000F7B5002575291068B1
:10023000009914A611D0C046C046002802DA4042F8
:1002400011A608E0009909688A0701D50FA602E007
:10025000490704D50EA6012501E0C046C046009F0F
:100260000024243704E000F0E2FA30313955641CF0
:100270000028F8D12B4632462146009800F062FA59
:10028000FEBD0000000000002D0000002B0000005B
:100290002000000070B504460021243408E0550712
:1002A000D2086D0F303565545D072A43DB08491CC1
:1002B00015461D43F3D10468002310A2250708D575
:1002C000A40601D4002904D0C46901230CA2641E31
:1002D000C46100F037FA70BD10B5044621461068BD
:1002E000C046C046002302462046FFF7D3FF10BD9C
:1002F000D21DD108C9000CC9CCE7000000000000E5
:1003000030000000F8B50F460188090502D5224CDF
:100310007C4402E0204C7C440E3405460021243508
:1003200008E016071209360FA65D6E541E07324309
:100330001B09491C16461E43F3D1224604780023AC
:10034000240705D5702F06D0002901D002231132D1
:1003500000F0F8F9F8BD01231032F9E770B5044652
:100360000D4621461068C046C04600230246294675
:100370002046FFF7C7FF70BDD21DD308DB000CCBB2
:10038000C0E730B4036820241268234303600823C5
:10039000C36130BC0023B5E7304F0000F3B504461D
:1003A000002081B020622046E1688847002872D092
:1003B000252802D06268A168ABE0594F00267F442F
:1003C0002046E16888472028054608DB312D06D203
:1003D000781920380078002801D00643F0E7B007EC
:1003E00001D5042086430020E0610746A0612A2D44
:1003F0000AD0284602F0C6FA002827D0B800001913
:10040000303D0090856119E00298BA00121902C8C7
:10041000916102902046E1688847012F054617D177
:10042000E06900281FDA202086431CE000980A219A
:100430008069484300994019303888612046E16856
:100440008847054602F09EFA0028EFD1012F0AD016
:100450002E2D08D12046E168884705462020064316
:100460007F1C022FC3DBA069002803DA4042A06191
:1004700001200643F00701D0102086436C2D0BD0DD
:10048000682D09D04C2D3CD06A2D38D0742D38D031
:100490007A2D36D016E040E0E1682F4620468847A6
:1004A000B842054609D16C2F29D001208002E168AD
:1004B000064320468847054604E06C2F1DD0FF20E8
:1004C00001300643002D28D028464138192803D88A
:1004D0000120C00206432035204626602946029AA4
:1004E0001646FFF72BFE002810D001280BD0F61D72
:1004F000F008C0000830029055E74020E1E7802076
:10050000D5E70020D3E7361D02964CE762682846FF
:10051000A1689047206A401C44E7206AFEBD0000A5
:10052000AA4E00000B4A30B511460B4C60310B4609
:10053000DC3B0CC1372106E0020C8D0012185A5129
:10054000064A504300190A46491E002AF4DC30BD11
:100550000120E7E7AC060020E119D666CD0D0100C9
:1005600030B5441C03E00178401C00290DD0810700
:10057000F9D10B4BDD0104C8D11A91432940FAD0BF
:10058000001B0A0603D0C01E30BD001B30BD0A048C
:1005900001D0801E30BD0902FCD0401E30BD0000DD
:1005A0000101010101E004C0091F0429FBD28B07EE
:1005B00001D50280801CC90700D002707047002955
:1005C0000BD0C30702D00270401C491E022904D37D
:1005D000830702D50280801C891EE3E70022EEE734
:1005E0000022DFE7002203098B422CD3030A8B424F
:1005F00011D300239C464EE003460B433CD400221B
:1006000043088B4231D303098B421CD3030A8B422C
:1006100001D394463FE0C3098B4201D3CB01C01AFA
:10062000524183098B4201D38B01C01A52414309C5
:100630008B4201D34B01C01A524103098B4201D3B3
:100640000B01C01A5241C3088B4201D3CB00C01A20
:10065000524183088B4201D38B00C01A5241430898
:100660008B4201D34B00C01A5241411A00D20146BD
:100670005241104670475DE0CA0F00D04942031056
:1006800000D34042534000229C4603098B422DD3A5
:10069000030A8B4212D3FC22890112BA030A8B424D
:1006A0000CD3890192118B4208D3890192118B429C
:1006B00004D389013AD0921100E08909C3098B4221
:1006C00001D3CB01C01A524183098B4201D38B0164
:1006D000C01A524143098B4201D34B01C01A524107
:1006E00003098B4201D30B01C01A5241C3088B424C
:1006F00001D3CB00C01A524183088B4201D38B0037
:10070000C01A5241D9D243088B4201D34B00C01AC0
:100710005241411A00D20146634652415B101046D5
:1007200001D34042002B00D54942704763465B101D
:1007300000D3404201B50020C046C04602BD70470C
:1007400070477047FFB504460D4681B024300090D5
:100750002168880604D51022E0699143216000E0F9
:100760000120A84201DD471B00E000270498A16991
:100770007A191018081AA0612078C00602D4204601
:10078000C046C046002608E003986268A168805D04
:100790009047206A401C761C206204988642F3DB56
:1007A0002078C0060AD52046C046C04606E06268EA
:1007B000A16830209047206A401C206238467F1E86
:1007C0000028F4DC07E000986268A168405D90476B
:1007D000206A401C206228466D1E0028F3DC20465B
:1007E000C046C0462078000602D5022005B0F0BD04
:1007F0000120FBE701694A1C02610878704700B5D7
:100800008FB002910021059105490193794403912C
:10081000114604906846FFF7C1FD0FB000BD00000F
:10082000E5FFFFFF0A681070521C0A60704701461E
:100830008008081A02091018020A1018020C101871
:10084000C008820012185200891A01E0401C0A39BF
:100850000A29FBD27047754600F024F8AE46050021
:1008600069465346C008C000854618B020B5FFF75A
:10087000B3FC60BC00274908B6460026C0C5C0C509
:10088000C0C5C0C5C0C5C0C5C0C5C0C5403D490084
:100890008D46704710B50446C046C0462046FFF757
:1008A0006EFC10BD00487047140700200149182055
:1008B000ABBEFEE7260002007047000010B5144CE6
:1008C000A088401C80B2A080E18888421ED3617855
:1008D0000120012902D16080022161706188228992
:1008E00091420ED28800E168085A217802F090FB0C
:1008F0006088E268810089184988E180401C608036
:1009000002E06080032060700020A08010BD000025
:100910000000002072B6FEE770B5044600F0C8F88B
:100920000546601C02D004480078241800F0C0F886
:10093000401BA042FAD370BD70000020F0B5002328
:1009400003249AE02A4601259D402A407ED00E7954
:10095000B607B60F012E01D0022E16D186682746A3
:10096000B4465E00B646B7406646BE43B446CF685E
:100970007646B7406646374387604668AE430D7992
:10098000ED06ED0F9D40354345600D79ED43AD0714
:1009900008D0C5685F002646BE40B5438E68BE409D
:1009A0002E43C6600D79AD07AD0F022D0ED1DD08C7
:1009B000AD002D18AC462D6A5E07F60E0F27B74026
:1009C000BD430F69B7402F4365462F6205685F003E
:1009D0002646BE40B5430E79B607B60FBE402E433D
:1009E00006604D68AD03AD0F46D09E08264DB6009B
:1009F0007519AC462D6E9E07F60E0F27B740BD4306
:100A000005273F07B84201D100270FE01F4FB8422A
:100A100001D101270AE01E4FB84201D1022705E0AB
:100A20001C4FB84201D1032700E00527B7402F43F0
:100A3000154D664637662D684E689543F60200D51B
:100A40001543114F3D607D68954300E014E04E680A
:100A5000B60200D515437D600B4D80356E684F683A
:100A60009643BF0300D516436E602E684F689643C9
:100A7000FF0300D516432E605B1C0A681546DA405A
:100A800000D05FE7F0BD00000018024000040050F5
:100A900000080050000C00500069084000D0012000
:100AA0007047002A01D08161704781627047000061
:100AB00001488068704700007000002070B5024651
:100AC00040325378202B1CD11378012B19D00123ED
:100AD000137024245470046825689D4325600468BD
:100AE00025681E03B5432560046825680D4325600D
:100AF00000680168194301602020507000201070C8
:100B000070BD022070BD70B5024640325378202B74
:100B10001BD11378012B18D0012414702423537097
:100B200003681D68A5431D6005682B680F26360203
:100B3000B343090219432960006801682143016039
:100B4000202050700020107070BD022070BD000089
:100B500070B5040006D02546403568780026002888
:100B600002D005E0012070BD2E70204600F0F0F8A4
:100B700024206870206801684908490001600F213D
:100B80006068090688432168086121688A68012035
:100B9000C00382438A60E1680129A16808D021224C
:100BA0009202114322689160E168022902D005E0B7
:100BB0000143F7E701212268C902516021684A68B0
:100BC0000F4B1A434A602168CA688243CA60616950
:100BD00020690843A169090208432168C860216AA5
:100BE000E069084321680860206801680122114318
:100BF00001606664202068702663AE70002070BDBE
:100C000000800002FFB5054604464035687883B091
:100C1000202872D10C98002814D00D98002811D0EB
:100C20002878012869D001202870FFF741FF074686
:100C3000012200901923D103204601F07FF90028FA
:100C400071D103E00120400260646CE021206870F3
:100C50004020A870002666640C9860620D9860853C
:100C600066630E980090019704A90EC9204601F012
:100C70001FF9002801D02E7055E0608DFF2805D99E
:100C8000FF22228501231B06009606E0608D208549
:100C90000096208D0123C2B25B062046049901F024
:100CA00037F93A4620460E9901F095F900283AD1D5
:100CB000606A216800788862606A401C6062608DAA
:100CC000401E6085208D401E80B22085618D0029E8
:100CD0001FD000281DD100970022802120460E9BA6
:100CE00001F02CF900281ED1608DFF2806D9FF22C3
:100CF000228501231B06009607E024E0608D2085F5
:100D00000096208D0123C2B25B062046049901F0B3
:100D1000FFF8608D0028C4D13A4620460E9901F0B4
:100D200034F9002802D0012007B0F0BD206820214E
:100D3000C16120684268054B1A4042606970AE701C
:100D40002E700020F0E70220EEE7000000E800FE31
:100D500010B586B0044614216846FFF741FC1249DD
:100D6000206888421DD1114C616B022001436163F0
:100D7000616B0140FF2005918130009012200190AD
:100D80000020029003900620049069460848FFF76F
:100D9000D5FDE16B012040050143E163E16B0140BA
:100DA000059106B010BD0000005400400010024044
:100DB00000040050024881680278891881607047F9
:100DC0007000002010B50848002401688215114306
:100DD0000160032000F00AF8002801D0012401E09E
:100DE00000F028F8204610BD0020024070B50F4EDC
:100DF000002431780546002915D07D20C000FFF77A
:100E0000F1FB01460A480068FFF7ECFB00F0E2FB4B
:100E1000002808D1042D06D200222946401E00F0E9
:100E20002BF8756000E00124204670BD70000020A2
:100E30007C00002008B509480168012211430160C7
:100E400000681040009005484038C26B01040A4316
:100E5000C263C06B0840009008BD00004010024013
:100E6000002805DBC106C90E012088400149086041
:100E70007047000000E100E010B501F061FD10BD19
:100E800010B50F4C216803225202914301432160A7
:100E9000C11FFF39FA390ED10A48062100684843BC
:100EA0000949FFF79FFB401C02E0002805D0401EC7
:100EB00061694905F9D4002010BD032010BD000070
:100EC000007000407C00002040420F00F8B504464E
:100ED000006800264D4D800358D54C480027403807
:100EE000C06BC00009D449484038C26B01040A43B2
:100EF000C263C06B08400127009045480168821515
:100F000011430160FFF7D4FD009005E0FFF7D0FD2D
:100F10000099401A022825D83D480068C005F5D53B
:100F2000E8690321090208400FD0616981420CD0B1
:100F3000E86903210902EA698843012109040A4397
:100F4000EA61EA698A43EA61E861C0070FD0FFF706
:100F5000AFFD009008E0FFF7ABFD0099411A2D4866
:100F6000814201D9032609E0E8698007F3D5E869E1
:100F700003210902884361690843E861002F05D015
:100F800022484038C26B01048A43C2632078C007FC
:100F900005D068696168800880000843686120782E
:100FA000800606D56869032109038843A1680843C0
:100FB00068612088400411D5686921698000800833
:100FC00008436861012120698907884206D10F48DA
:100FD0004038C168012212041143C1602088000515
:100FE00012D56869032189038843E1680843686171
:100FF0000121E0688903884206D104484038C1686D
:10100000012212041143C1603046F8BD4010024075
:101010000070004088130000F8B50F46060043D06A
:101020004D4D28684007400FB84213D22868C008C9
:10103000C00038432860FFF73BFD044605E0FFF79A
:1010400037FD011B4548814261D828684007400FA1
:10105000B842F4D13068424C81070DD5400704D521
:10106000A068072109030843A060A0680F210902B6
:101070008843B1680843A0603078C00732D07068F8
:1010800001280AD002280BD000280FD03449403163
:1010900003280ED0C969890704E02168890301E0AB
:1010A00021688901002906DB0120F8BD2168490576
:1010B000F8E7096AEFE7A168C908C9000143A16020
:1010C000FFF7F6FC009006E0FFF7F2FC0099411AEA
:1010D000224881421BD8A068382108407168C900A5
:1010E0008842F1D128684007400FB84217D91A4802
:1010F0000168C908C90039430160FFF7D9FC0546FA
:1011000007E0FFF7D5FC411B1448814201D90320B9
:10111000F8BD114800684007400FB842F1D130785F
:10112000400706D5A068072109038843F1680843F2
:10113000A06000F01DF8A1683C2289091140094A0D
:10114000515CC906C90EC8400749086007480068D5
:10115000FFF74CFEF8BD000000200240881300009D
:1011600000100240045200087C000020740000209F
:1011700010B5204CA068204A8006400F16D0A06809
:101180008006410F501001290FD0A1688906490F30
:10119000022912D0A0688006400F042823D0A0683E
:1011A0008006400F032821D0002010BD20680121B7
:1011B0008004400F8140104612E0E1688B07E1682F
:1011C0009B0F4906490F491C032B00D01046FFF71F
:1011D00009FAE1684904490E4843E168490F491C8E
:1011E000FFF700FA10BD0120C00310BD7D200002F2
:1011F00010BD0000001002400024F400F8B5040007
:101200007ED020783827C007E94D002846D0A8684E
:10121000E96838408907890F102802D008280BD0C8
:1012200001E0032908D001206268000482420AD14B
:1012300029680143296015E0286880032ED560687D
:101240000028DDD02AE0052301211B0489049A42ED
:101250002A6802D10A432A60EAE782432A602868A2
:1012600088432860606800280CD0FFF721FC064600
:1012700004E0FFF71DFC801B642873D828688003F6
:10128000F7D50BE0FFF714FC064604E0FFF710FC6F
:10129000801B6428F1D828688003F7D42078800761
:1012A00069D5A868E96838408A070721920FC90202
:1012B000102802D0002813D001E0022A10D0E068E4
:1012C000002846D028688843216908432860286898
:1012D000FF21013108432860FFF7EAFB06462CE0B6
:1012E0002A68520502D5E268002A89D06A687F23FD
:1012F0001B029A4363691B021A436A60002800E0DC
:101300008DE00ED128688843216908432860286849
:1013100001218004400F8140A648FFF763F9A649E8
:101320000860A6480068FFF761FD002877D122E039
:10133000FFF7BEFB801B02289FD828684005F7D521
:1013400068687F210902884361690902084368606F
:1013500011E02968FF20013081432960FFF7A8FBD5
:10136000064605E098E0FFF7A3FB801B022884D81F
:1013700028684005F7D42078914E00072ED5A8683C
:101380008006400F03280AD0A0690028306A16D0D2
:10139000012108433062FFF78BFB07460BE0306A00
:1013A00080071BD5A06900289FD017E0FFF780FBBE
:1013B000C01B022870D8306A8007F7D50EE04008BD
:1013C00040003062FFF774FB074604E0FFF770FB54
:1013D000C01B022860D8306A8007F7D42078400705
:1013E0006CD5A86800278006400F042818D0E86B49
:1013F000C00008D4E96B012000070143E963E96BF1
:101400000140012700916F480168C90519D401689E
:10141000821511430160FFF74BFB00900DE083E064
:10142000F06980074AD5A06800287DD046E0FFF724
:101430003FFB0099401A02282ED862480068C00578
:10144000F5D5A168012910D004200529F16911D032
:1014500049084900F161F1698143F161A068002800
:1014600016D0FFF725FB00900EE0F069012108433C
:10147000F061F3E70143F161F7E7FFF719FB00992A
:10148000411A5148814265D8F0698007F5D50EE0D0
:10149000FFF70EFB009007E05CE0FFF709FB009907
:1014A000411A4948814255D8F0698007F5D4002F88
:1014B00004D0E96B012000078143E963E06900285B
:1014C00073D0A9688906490F02294DD00126360636
:1014D0000228286805D0B0432860FFF7E9FA0446DF
:1014E0003AE0B0432860FFF7E3FA074604E0FFF76D
:1014F000DFFAC01B02282DD828688001F7D4616A62
:10150000206AA26A0843E16A120211430843216B70
:101510000843E9682D4A11400843E86028683043D1
:101520002860E868012100E03DE009070843E86021
:10153000FFF7BEFA044604E0FFF7BAFA001B0228E0
:1015400008D828688001F7D52FE0FFF7B1FA001B13
:10155000022801D90320F8BD28688001F5D4E86885
:101560001B490840E86020E00128F4D0E868226ABE
:101570008107890F914216D17021626A0140914220
:1015800011D17F21A26A09020140120291420AD1BF
:101590001F214904E26A0140914204D1400F216BAE
:1015A0004007884201D00120F8BD0020F8BD0000AE
:1015B000001002400024F4007C0000207400002091
:1015C0004010024000700040881300008C80C11F52
:1015D000FCFFFEEF094910B5401E884201D90120E9
:1015E00010BD074C60610321081F01F0A9F900201C
:1015F000A06107202061002010BD0000FFFFFF0058
:1016000000E000E0704770477047000070B5034687
:1016100020331A7F012A4BD001221A770325CA688A
:101620002D02AA438D6800682A430125AD02AA4312
:101630004D6800242A430125ED02AA430D682A4380
:1016400001252D03AA430D692A4301256D03AA43F1
:101650004D692A430125AD03AA430D6B2A430F258B
:101660002D04AA430D8B2D042A43124DA84204D108
:1016700001263607B243CE693243A84214D10F2562
:101680002D05AA430D8D2D052A4301252D06AA43BC
:101690000D6A2A4301256D06AA434D6AC96A2A4389
:1016A00001256D07AA430A4342641C77002070BDE0
:1016B000022070BD002C0140F0B5034620331A7F94
:1016C000012A24D001221A7702225A77046862681C
:1016D000A568104FBC4205D116460F22120596434D
:1016E0004A6832437026B2430E681643666000684B
:1016F000B84202D0084A904204D1802289689543BA
:10170000294381600120587700201877F0BD02201E
:10171000F0BD0000002C01400004004070B5040042
:1017200005D025462035687F002802D006E001203C
:1017300070BD00202877204600F016F80220687758
:10174000211D206800F01CFF012240342272AA777C
:10175000EA7722706270A270E27022716271A271E7
:10176000E2716A77002070BD08B5194A016819480E
:10177000914207D10268C1140A4302600068084020
:10178000009008BD144A91420FD112484038C26BF4
:1017900002210A43C263C06B00220840009003216B
:1017A0001020FFF769FB10200FE00C4A9142E8D1AE
:1017B0000268C9130A4302600068002208400090D2
:1017C00001211320FFF758FB1320FFF749FB08BD49
:1017D000002C014040100240000400400020004066
:1017E000014620314A7F012A01D0012070470222A0
:1017F0004A770168CB6801221343CB60006809492E
:10180000884202D00849884207D18168074B1940B5
:10181000062905D0DB1F994202D0016811430160FF
:1018200000207047002C0140000400400700010028
:1018300001680A6A074B1A4207D10A6A9B101A42CA
:1018400003D10A68520852000A6001212030417712
:101850000020704711110000F8B5054604462035F8
:10186000287F0026012817D001272F7702206877CC
:10187000226890682F4B1840FF231B02984390600A
:101880000868502838D00EDC20284FD006DC00280D
:101890004CD010281ED149E00220F8BD302845D098
:1018A000402817D13AE060282ED0702818D00122A5
:1018B0001203801A0FD090420CD1CB684A68896815
:1018C000206800F0A6FE206881680122920311437F
:1018D000816000E001266F77002028773046F8BD50
:1018E000CB684A688968206800F093FE21688868A0
:1018F000772210438860EEE7CA684968206800F0E4
:10190000EDFF5021206806E0CA684968206800F0B1
:10191000F6FF6021206800F087FEDCE7CA684968AE
:10192000206800F0DBFF40212068F4E722680146D0
:101930001046F0E788FFCEFF7047000070B5044600
:10194000006801690025C9438907002915DBC168C2
:10195000C943890711D4E91E01610120207720685D
:1019600080698007204602D0FFF7E6FF04E000F020
:10197000CDF8204600F086F9257720680169C94333
:10198000490717D4C168C943490713D40421C9437F
:10199000016102202077206880698005800F204641
:1019A00002D0FFF7C9FF04E000F0B0F8204600F0D5
:1019B00069F9257720680169C943090716D4C16808
:1019C000C943090712D40821C943016104202077C3
:1019D0002068C0698007204602D0FFF7ADFF04E011
:1019E00000F094F8204600F04DF925772068016951
:1019F000C943C90617D4C168C943C90613D4102105
:101A0000C9430161082020772068C0698005800FE4
:101A1000204602D0FFF790FF04E000F077F8204660
:101A200000F030F9257720680169C943C90708D15A
:101A3000C168C943C90704D1891E0161204600F06D
:101A400083F920680169C943090609D4C168C943FB
:101A5000090605D48021C94301612046FFF7D3FD63
:101A600020680169C943C90508D4C168C94309068A
:101A700004D4124901612046FFF7C4FD20680169C2
:101A8000C943490609D4C168C943490605D4402160
:101A9000C9430161204600F06BF920680169C94320
:101AA000890609D4C168C943890605D42021C943E0
:101AB00001612046FFF7A8FD70BD0000FFFEFFFF9B
:101AC00010B586B0044614216846FEF789FD0D491D
:101AD0002068884214D10C48416B012211434163B4
:101AE000406B022110400590D0020090002002902F
:101AF000039001910491052069460007FEF71EFF3F
:101B000006B010BD002C0140001002407047F8B52F
:101B100004460020264620360090307F0D460128DE
:101B20000CD00120082730770C2A48D008DC002A86
:101B300010D0042A1ED0082A06D130E00220F8BDB9
:101B4000102A52D0142A60D0012000900020307753
:101B50000098F8BD206800F071FD20688169394364
:101B600081612068816904229143816120688169D3
:101B70002A6911E0206800F09FFD20688169012238
:101B8000D2021143816120688169521091438161C1
:101B9000206881692A69120211438161D6E72068B1
:101BA00000F0C8FD2068C1693943C1612068C1697E
:101BB00004229143C1612068C1692A6912E020684A
:101BC00000F0F6FD2068C1690122D2021143C16113
:101BD0002068C269012189028A43C2612068C16903
:101BE0002A6912021143C161B0E7206800F016FEB5
:101BF0002068416D394341652068426D04218A4364
:101C000042652068416D2A6912E0206800F034FEC8
:101C10002068416D0122D202114341652068426D66
:101C2000012189028A4342652068416D2A691202B6
:101C3000114341658AE770B5040005D0254620357B
:101C4000687F002802D006E0012070BD00202877C0
:101C5000204600F016F802206877211D206800F069
:101C60008FFC012240342272AA77EA7722706270D8
:101C7000A270E27022716271A271E2716A77002033
:101C800070BD70477047000030B505460223203014
:101C900000290ED0042911D02C464034082912D036
:101CA0000C2915D0102918D0E278012A1AD0012069
:101CB00030BD827F012AFAD1837714E0C27F012AE6
:101CC000F5D1C3770FE02278012AF0D123700AE022
:101CD0006278012AEBD1637005E0A278012AE6D18F
:101CE000A37000E0E3700122286800F085FC114A2F
:101CF0002868904205D01049884202D00F49884296
:101D000004D1416C0123DB0319434164286801219C
:101D1000904202D00A4A904207D18268094B1A4089
:101D2000062A05D0DB1F9A4202D002680A430260ED
:101D3000002030BD002C014000440140004801401B
:101D4000000400400700010010B504460548844225
:101D500001D100F0BFFF0448844202D103490120B1
:101D6000887110BD18010020640100203C00002093
:101D70007047FEE701688A69D243920701D40022C6
:101D80008A6200688169C943C90703D08169012259
:101D90001143816170470000F7B50446006882B0C6
:101DA000816900262546C90640353746009200293C
:101DB00049DA1021C16136E00398401C33D0FEF7A8
:101DC00077FE0099411A0398814201D800282AD150
:101DD00021684A6801208003AB7802409C468B69E9
:101DE000DB431B041AD4824218D06246202A15D045
:101DF0004A6802434A60FEF75BFE00900EE0FEF781
:101E000057FE0099401A192808D9616C2020014317
:101E1000616468700020A8702870012620688069BD
:101E2000C0438006EBD420688069C043800602D599
:101E3000002EC1D004E0002E02D121682020C8610C
:101E400004200743012621688869C20504D50122C0
:101E500017431202CA610126410508D508210F4324
:101E60002268C901D1610126800502D40AE08005FB
:101E700006D50220074321680002C861012601E05F
:101E8000002E0FD02046FFF775FF20684168074AF3
:101E900011404160606C384360642020687000200D
:101EA000A8702870304605B0F0BD000000E800FEC4
:101EB000F8B50446164615481D46DAB2C30200902E
:101EC000079F204600F024F83A462046069900F085
:101ED00082F8002818D12846F5B2012809D02168D7
:101EE000300A88623A462046069900F074F80028C5
:101EF0000AD1206885620097002280212046069B37
:101F000000F01CF8002800D00120F8BD002000805F
:101F1000890510B5890D12041143029C194302680A
:101F20002143490050684908630D034C23439843FB
:101F30000843506010BD0000FF63FF03F8B51D4665
:101F400017460E46044609E0681C07D0FEF7B0FDB0
:101F50000699401AA8420BD8002D09D02068816943
:101F6000304688430FD00020B842EDD00020F8BDA5
:101F7000616C202001436164403460700020A070D7
:101F800020700120F8BD0120EEE770B516460D4621
:101F900004460FE0324629462046FFF7FDFE0028A2
:101FA00001D0012070BDFEF783FD801BA84208D838
:101FB000002D06D020688069C0438006EAD4002046
:101FC00070BD616C2020014361644034607000206A
:101FD000A0702070E5E770B516460D46044611E086
:101FE000324629462046FFF7D7FE002801D00120BF
:101FF00070BD681C06D0FEF75BFD801BA84208D8A8
:10200000002D06D020688069C0438007E8D40020F6
:1020100070BD616C20200143616440346070002019
:10202000A0702070E3E70000F0B587B01421684687
:10203000FEF7D6FA1E48416B012529434163416BE7
:1020400029400591426B02210A434263406B002202
:10205000084055210E0705903046FEF722FD154F2A
:10206000002209213846FEF71CFD5520002400906F
:1020700002946946019503943046FEF75FFCAA205E
:102080006A4631C269463046FEF758FC0920009086
:1020900002946946019503943846FEF74FFC1220DE
:1020A0006A4631C269463846FEF748FC07B0F0BDC3
:1020B000001002400004005010B51348114901609F
:1020C0001249416000218160016141618161012209
:1020D000C161C2600162FEF73BFD002801D0FEF73E
:1020E00019FC00210848FEF7E9FC002801D0FEF7A2
:1020F00011FC00210448FEF706FD002801D0FEF780
:1021000009FC10BD0054004080000020BC7D701010
:1021100010B50A4808490160094941600021816001
:10212000084A0161C2608161FFF7F8FA002801D016
:10213000FEF7F0FB10BD000000200040640100200D
:10214000FFF90000FFFF000010B59CB000241994B7
:102150001A9417941894149415941C210DA816948D
:10216000FEF73EFA34216846FEF73AFA2E482D492A
:102170000160072184604160046144612B498461EE
:10218000C160FFF7CBFA002801D0FEF7C3FB0120A6
:102190000003179017A92448FFF75EFB002801D021
:1021A000FEF7B8FB2048FFF746FD002801D0FEF7F8
:1021B000B1FB1494159414A91B481694FFF77CFAEC
:1021C000002801D0FEF7A6FB602012940E940D901B
:1021D0000F9411940C220DA913941348FFF797FC48
:1021E000002801D0FEF796FB0120009440030590E3
:1021F00001940294049400030394069407940990B4
:1022000008940A940B9469460C940748FFF7FEF96A
:10221000002801D0FEF77EFB0348FFF751FC1CB0FD
:1022200010BD0000002C0140CC000020FFFF00008A
:1022300010B588B0002400940194174802940394C8
:102240000494059413490694016014498460416024
:10225000046109218461C160FFF760FA002801D0A0
:10226000FEF758FB01200003009069460A48FFF77B
:10227000F3FA002801D0FEF74DFB049404A90648A8
:102280000694FFF719FA002801D0FEF743FB08B0C7
:1022900010BD00000004004018010020FFF90000FC
:1022A000FEE70000FEB50024204600F0C1F800263D
:1022B000E00801901248F1000918019800250F5C10
:1022C00070B20090380603D5601941B2012202E0D5
:1022D000601941B20022009800F014F878066D1CD5
:1022E000070EEDB2082DEDD3761CF6B2802EE1D3A9
:1022F0000834E4B2402CDAD300F0BCF8FEBD000094
:102300000245000870B5802817D2002915DB3F2947
:1023100013DCCB175B0F5E187305F6081B0EF60077
:102320000124891B084D8C40C0004019012A05D0AA
:10233000C15C022A05D0A143C15470BDC15C2143D8
:10234000FAE76140F8E700003002002000B5002104
:10235000AE2000F021FE0021202000F01DFE002113
:10236000102000F019FE0021B02000F015FE002121
:10237000C82000F011FE0021084600F00DFE0021EB
:10238000102000F009FE0021402000F005FE002191
:10239000812000F001FE0021FF2000F0FDFD002162
:1023A000A12000F0F9FD0021A62000F0F5FD00219C
:1023B000A82000F0F1FD00213F2000F0EDFD0021FC
:1023C000A42000F0E9FD0021D32000F0E5FD00216C
:1023D000084600F0E1FD0021D52000F0DDFD0021E0
:1023E000F02000F0D9FD0021D92000F0D5FD00211A
:1023F000222000F0D1FD0021DA2000F0CDFD0021E7
:10240000122000F0C9FD0021DB2000F0C5FD0021F5
:10241000202000F0C1FD00218D2000F0BDFD002135
:10242000142000F0B9FD0021AF2000F0B5FD00BD83
:10243000F0B500210E4B0D46FF24002201280FD0DD
:10244000002811D0D600F618775CE71B7754521C91
:10245000D2B2802AF2D3491CC9B20829EDD3F0BD0B
:10246000D600F6187454F2E7D600F6187554EEE765
:102470003002002030B50B4D00242146002000F032
:1024800013F80023D8004019005D012100F084FDFD
:102490005B1CDBB2802BF5D3641CE4B2082CECD3BC
:1024A00030BD0000300200200346B03100B5C8B294
:1024B000002100F071FD18090021103000F06CFDC2
:1024C0001807000F002100F067FD00BD704770473E
:1024D00010B5FEF76FFC10BD30B597B034216846DB
:1024E000FEF77EF800250D950E950F95182111A881
:1024F0001095FEF775F801204002FEF7C1FC02249A
:10250000E001039000944020059008200A90800389
:102510000B900794000304950C9009950894684665
:10252000FEF76CFE002801D072B6FEE707200DA969
:1025300031C102210DA81095FEF76EFD002801D0D3
:1025400072B6FEE720201190139511A8FEF7BEFC8D
:10255000002801D072B6FEE717B030BD704700000A
:1025600010B50248FFF7EAF910BD00006401002031
:1025700010B50248FFF7E2F910BD00001801002075
:1025800070B50268174B184E984201D0B04203D183
:102590007024A2434C682243144C154D984208D035
:1025A000B04206D0134EB04203D0A04201D0A842A0
:1025B00004D103263602B243CE6832438026B243AA
:1025C0004E69324302608A68C2620A688262984237
:1025D00003D0A04201D0A84201D1096901630121C1
:1025E000416170BD002C01400004004000440140E6
:1025F000004801400020004010B5CB06DB0E012151
:10260000046A99408C430462016A9A401143016252
:1026100010BD30B58468FF252D021B021343AC4367
:102620000B432343836030BD8268034B1A400A4347
:1026300007210A43826070478FFFCFFFF0B5026A1F
:10264000520852000262056A43688269164C184EAD
:10265000224092080C6892001443022295438A6833
:102660002A43124DA84204D0B04202D0114FB842C2
:1026700006D10827BA43CF681743042297433A4646
:10268000A84204D0B04202D00A4DA84206D1032588
:102690002D02AB434D691D438B692B43436084611D
:1026A000496841630262F0BD8FFFFEFF002C0140CC
:1026B000004401400048014070B5026A10239A436B
:1026C0000262046A43688269164D2A4003252D027E
:1026D000AA430D682D021543202294438A681201F3
:1026E0002243114CA04208D11446CA688026B44344
:1026F000120122434024A24305E00C4CA04202D028
:102700000B4CA04208D10324A402A3434C69A400AB
:102710001C438B699B002343436085614968816347
:10272000026270BDFF8FFFFE002C0140004401409B
:102730000048014070B5026AFF2301339A430262E8
:10274000046A4368C269164D2A4092080D689200D7
:1027500015430122520294438A6812022243114C0B
:10276000A04208D11446CA68C614B44312022243D8
:102770000415A24305E00C4CA04202D00B4CA04231
:1027800008D103242403A3434C6924011C438B690F
:102790001B0123434360C5614968C163026270BD88
:1027A0008FFFFEFF002C0140004401400048014023
:1027B00030B5026A01231B039A430262046A45682A
:1027C000C269124B1A4003231B029A430B681B0277
:1027D00013430122520394438A68120322430C4C90
:1027E000A04205D00B4CA04202D00B4CA04206D117
:1027F0002C460125AD03AC434D69AD012543456031
:10280000C36149680164026230BD0000FF8FFFFEB2
:10281000002C0140004401400048014070B5026AAC
:1028200001263604B2430262036A4268446D0E4DCB
:102830002C400D6825437400A3430C8924041C43D9
:102840000A4B984205D00A4B984202D0094B984255
:1028500003D14B69B2431B021A4342604565496884
:102860008165046270BD00008FFFFEFF002C0140F7
:10287000004401400048014070B5026A01231B0575
:102880009A430262036A4268456D104C25400C6809
:1028900024022C4301256D05AB430D892D051D43F5
:1028A0000B4B984205D00B4B984202D00A4B9842F2
:1028B00006D101261346B6044A69B34392021A436D
:1028C000426044654968C165056270BDFF8FFFFEC7
:1028D000002C0140004401400048014030B5036A2B
:1028E000046A6408640004628469F025AC43120140
:1028F00022430A24A3430B438261036230BD30B5F7
:10290000036A1024A34303628469036A0F252D031D
:102910001203AC432243A024A3430901194382615B
:10292000016230BD30B47446641E2578641CAB422D
:1029300000D21D46635D5B00E31830BC1847000001
:102940008307FF22DB0E9A408907090E9940002871
:1029500008DB830809489B001B181868904308434C
:10296000186070470007000F0838830804489B0070
:102970001B18D86990430843D861704700E400E011
:1029800000ED00E030380A2801D201207047002015
:102990007047000010B50448FEF722FF0C210348E1
:1029A000FFF772F910BD000018010020CC000020D4
:1029B00070B5444E052430782407434D002823D0B9
:1029C00002212046FEF768F8002824D0082120467E
:1029D000FEF762F800281ED020212046FEF75CF8A2
:1029E000002818D080212046FEF756F8002812D083
:1029F00002212846FEF750F800280CD01021284666
:102A0000FEF74AF8002806D002212046FEF744F8D7
:102A1000012836D054E00A20FDF77EFF00203070F8
:102A200002212046FEF738F800281ED00821204653
:102A3000FEF732F800281AD020212046FEF72CF8A5
:102A4000002816D080212046FEF726F8002812D054
:102A500002212846FEF720F800280ED01021284633
:102A6000FEF71AF800280AD02AE0012070BD0220E3
:102A700070BD032070BD042070BD052070BD062010
:102A800070BD08212046FEF707F8012818D1202143
:102A90002046FEF701F8012812D180212046FDF7DB
:102AA000FBFF01280CD102212846FDF7F5FF012884
:102AB00006D110212846FDF7EFFF012800D1307024
:102AC000002070BD3C00002000040050FEF77AF9A1
:102AD000FFF702FDFFF7A8FAFFF7EEFAFFF734FB66
:102AE000FFF7A6FBFFF714FB00F028FB00F0D6FA77
:102AF000FCE700001CB5094C0121607A00F0FCF8ED
:102B0000E179E0680A2342180820E2600090019011
:102B10000621382000F0F0F91CBD00003C00002028
:102B200070B5044600F094FA3220FDF7F5FE05205A
:102B300000070F4D2300FFF7F5FE071905080B0EE0
:102B400011141900012211460EE0012204210BE0AC
:102B50000122102108E00122402105E00122114656
:102B600001E0012208212846FDF79BFF70BD00000F
:102B7000000400507CB50F4800210172C179491C46
:102B8000C9B2C1710E2901D90E21C171CAB2094958
:102B9000094B500010311D680C5AEC62085AD8607D
:102BA0000820009001900A230421382000F0A4F9A5
:102BB0007CBD00003C0000206401002010B5FDF742
:102BC00077FFFDF7AFFCFDF7E1FA0621FDF714FDF5
:102BD000491CC8B210BD00000548052181700021C4
:102BE000C1700122C16042718171C271017270476E
:102BF0003C0000207CB500F0A7F8FFF753FB012054
:102C00000021009004232022084600F025F97D20B1
:102C1000C000FDF781FE00F097F80021082318A2FC
:102C2000084600F0A7F9082318A20221002000F0AE
:102C3000A1F9082317A20421002000F09BF9082322
:102C400016A20621002000F095F90824154D0094E5
:102C500001940A23AA780221382000F04DF900944B
:102C600001940A23EA790421382000F045F9009400
:102C700001940A2306213820EA6800F03DF97CBD62
:102C80005265616C537465656C0000004C69666543
:102C90003A0000004C6576656C3A000053636F7231
:102CA000653A00003C0000201CB5094C0221607A06
:102CB00000F022F8A0780A23401EC2B2A2700820B9
:102CC000009001900221382000F016F91CBD000090
:102CD0003C00002010B507494878012806D002289A
:102CE00004D00978002000F093F910BDFDF7E6FD4F
:102CF00010BD00000000002010B50B00FFF712FE11
:102D0000091C06080B0D101315181C000B4911E0C7
:102D10000A4914390EE00A490CE00949943109E0E6
:102D20000749C83106E0074904E00449143101E0CD
:102D30000349A43900F062F910BD0000A031000879
:102D4000FC320008FC39000870B500242046B03081
:102D5000C0B200F02BF9002000F028F9102000F09C
:102D600025F90025002000F035F96D1CEDB2802D0D
:102D7000F8D3641CE4B2082CE8D370BDFEB5C820BB
:102D8000FDF7CAFDFF2500240135084F012638193B
:102D90000090012300227821019602950448FDF756
:102DA00031FF641CE4B21B2CF1D3FEBD21000020D6
:102DB0008000002010B50446B031C8B200F0F6F82B
:102DC0002009103000F0F2F82007000F00F0EEF8B4
:102DD00010BD0000F8B5203A0E460746D4B27F2851
:102DE00001D8072E01D900273E46082B12D0062B0A
:102DF0000FD131463846FFF7DDFF06204443144823
:102E000000252418605D00F0E5F86D1CEDB2062D7C
:102E1000F8D3F8BD31463846FFF7CCFF0D49002501
:102E200020014418605D00F0D5F86D1CEDB2082D4E
:102E3000F8D3761CF1B23846FFF7BCFF0825605D79
:102E400000F0C8F86D1CEDB2102DF8D3F8BD0000ED
:102E5000D83B0008123E0008FFB581B00F460025A0
:102E600022E039467F1CFFB20198FFF7A3FF0399C8
:102E70002846484384B2461812E00A980300FFF738
:102E800051FD0B0709181B1D202225272A2C0D0098
:102E9000134800E01348005D00F09CF8641CA4B2E5
:102EA000A642EAD86D1CADB204988542D9D305B0CC
:102EB000F0BD0C488030EEE70B48ECE70A48803064
:102EC000E9E70A48E7E709488030E4E70848E2E72D
:102ED00007488030DFE70748DDE706488030DAE75B
:102EE00002490008024D0008024E0008024F000887
:102EF0000250000802510008FFB587B005461C4685
:102F00001C216846109F119EFDF76AFB0A2C03D016
:102F1000102C04D0082C05D013A1099A04E013A1A9
:102F2000099A01E0099A12A16846FDF767F9684617
:102F3000FDF716FBC0B26C46202102E02154401C74
:102F4000C0B2B842FAD3002708E07F1CFFB2334674
:102F500028460899FFF73EFFA819C5B2E25D002A8E
:102F6000F3D10BB0F0BD000025640000255800002F
:102F7000256F0000F8B51E4614460F46054607E0CB
:102F8000334639462846641CFFF724FFA819C5B20A
:102F90002278002AF4D1F8BD034A002900D040214C
:102FA00011705070704700006800002001B584B0B7
:102FB000FF220121013204A80B46029201910090E8
:102FC000002278210248FDF71DFE05B000BD00007B
:102FD0008000002001B584B0FF220121013204A845
:102FE0000B46029201910090402278210248FDF7A1
:102FF00009FE05B000BD000080000020034A012347
:1030000053704B881381D16010707047000000200E
:10301000F8B50F460C4C01460A4A143900252668BB
:10302000914201D335640AE001460848FDF7DAFA17
:10303000401E80B2F062E0602168F84008642068B9
:103040004562F8BD0D4E0000CC00002000127A0051
:1030500010B505242407002201212046FDF721FD9B
:10306000002204212046FDF71CFD002210212046ED
:10307000FDF717FD002240212046FDF712FD064C0A
:10308000002201212046FDF70CFD002208212046E8
:10309000FDF707FD10BD00000004005070B5244C82
:1030A000A07800282DD06079002500280AD0214E74
:1030B000657130684562FFF781FDE070FFF730FD14
:1030C00030684562A0790126002803D0A571667199
:1030D000FFF7EAFDFFF76CFC207100280DD0667148
:1030E000E17888420AD1FFF705FD207A401CC0B282
:1030F00020720A2801D9FFF73DFD70BDFFF7D4FD0E
:1031000070BD0521607AFFF7F7FDFFF7A1FF0A48C0
:10311000FDF702FC0748FEF78BFB02E06420FDF799
:10312000FBFBFFF745FC0028F8D000F007F870BD66
:103130003C00002064010020B80B000010B5104CCA
:1031400007206072FFF726FC0521607AFFF7D4FDA7
:10315000FFF742FDFFF712FEFFF7F8F8FFF74AFD11
:10316000084800210268516202680749D162C160C3
:1031700001210068C94301610248FEF731FB10BD1F
:103180003C00002064010020CF0700000000040084
:1031900093020F004B020F000B020F0000001E00F5
:1031A0000000040017040F0097040F0027050F000C
:1031B00000001E000000280020031900E803190089
:1031C00020031900E803190020031900E80319007F
:1031D00020031900E803190020031900E80319006F
:1031E00020031900E803190020031900E80319005F
:1031F00020031900E803190020031900E80319004F
:1032000020031900E803190020031900E80319003E
:1032100020031900E803190020031900E80319002E
:1032200020031900E803190020031900E80319001E
:1032300020031900E803190020031900E80319000E
:1032400020031900E803190020031900E8031900FE
:1032500020031900E803190000002800E8036400B7
:1032600020036400E803640020036400E8036400B2
:1032700020036400E803640020036400E8036400A2
:1032800020036400E803640020036400E803640092
:1032900020036400E803640020036400E803640082
:1032A00020036400E803640020036400E803640072
:1032B00020036400E803640020036400E803640062
:1032C00020036400E803640020036400E803640052
:1032D00020036400E803640020036400E803640042
:1032E00020036400E803640020036400E803640032
:1032F00020036400E803640020036400000025004C
:103300000B0228004B022800930228000B02280021
:103310000B0228004B022800930228000B02280011
:1033200093022800BA022800100328000000280099
:1033300093022800BA022800100328000000280089
:10334000100314007003140010031400BA021400D8
:10335000930228000B0228001003140070031400CD
:1033600010031400BA021400930228000B02280074
:103370000B022800880128000B022800000028000A
:103380000B022800880128000B02280000002800FA
:1033900000000D002006190027050D0017040D0080
:1033A000970419001003190010030D00DC030D0031
:1033B00097040D0075050D00270519001704190065
:1033C0000000190000008C0127050F0027051E00D2
:1033D00027050F0000000F0017040F0027051E002F
:1033E00020061E0000001E0010031E0000001E002C
:1033F00017041E0000000F0010030F0000001E0045
:1034000093021E0000000F0070031E00DC030F007B
:1034100000000F00C1030F0070031E0010031E0008
:1034200027051E0020061E00E0061E0075050F0081
:1034300020060F0000000F0027051E0017040F00D4
:1034400097040F00DC031E0000000F0017041E008D
:1034500000000F0010030F0000001E0093021E006A
:1034600000000F0070031E00DC030F0000000F00BF
:10347000C1030F0070031E0010031E0027051E006D
:1034800020061E00E0061E0075050F0020060F0036
:1034900000000F0027051E0017040F0097040F00FF
:1034A000DC031E0000000F0000001E0020060F00BD
:1034B000CA050F0075050F00E4041E0027050F0064
:1034C00000000F0040030F0070030F0017040F00EF
:1034D00000000F0070030F0017040F0097040F0087
:1034E00000001E0020060F00CA050F0075050F0022
:1034F000E4041E0027050F0000000F002C081E002A
:103500002C080F002C081E0000001E0000001E00EA
:1035100020060F00CA050F0075050F00E4041E0009
:1035200027050F0000000F0040030F0070030F007D
:1035300017040F0000000F0070030F0017040F00A6
:1035400097040F0000001E0020061E0000000F0060
:1035500075051E0000000F0027051E0000001E005C
:1035600000003C0000001E0020060F00CA050F00EE
:1035700075050F00E4041E0027050F0000000F0072
:1035800040030F0070030F0017040F0000000F002E
:1035900070030F0017040F0097040F0000001E00B7
:1035A00020060F00CA050F0075050F00E4041E0079
:1035B00027050F0000000F002C081E002C080F002C
:1035C0002C081E0000001E0000001E0020060F0038
:1035D000CA050F0075050F00E4041E0027050F0043
:1035E00000000F0040030F0070030F0017040F00CE
:1035F00000000F0070030F0017040F0097040F0066
:1036000000001E0020061E0000000F0075051E00B1
:1036100000000F0027051E0000001E0000003C00F7
:1036200017040F0017041E0017040F0000000F00FE
:1036300017040F0097041E0027050F0017041E0033
:1036400070030F0010031E0000001E0017040F007F
:1036500017041E0017040F0000000F0017040F00CE
:1036600097040F0027050F000000780017040F00D3
:1036700017041E0017040F0000000F0017040F00AE
:1036800097041E0027050F0017041E0070030F008B
:1036900010031E0000001E0027050F0027051E0056
:1036A00027050F0000000F0017040F0027051E005C
:1036B00020061E0000001E0010031E0000001E0059
:1036C00017041E0000000F0010030F0000001E0072
:1036D00093021E0000000F0070031E00DC030F00A9
:1036E00000000F00C1030F0070031E0010031E0036
:1036F00027051E0020061E00E0061E0075050F00AF
:1037000020060F0000000F0027051E0017040F0001
:1037100097040F00DC031E0000000F0017041E00BA
:1037200000000F0010030F0000001E0093021E0097
:1037300000000F0070031E00DC030F0000000F00EC
:10374000C1030F0070031E0010031E0027051E009A
:1037500020061E00E0061E0075050F0020060F0063
:1037600000000F0027051E0017040F0097040F002C
:10377000DC031E0000000F0027050F0017041E00C9
:1037800010030F0000001E0040031E0070030F0016
:1037900075051E0075050F0070031E0000001E0059
:1037A000DC031E00E0061E00E0061E00E0061E0010
:1037B00020061E0075051E0027050F0017041E00B9
:1037C00070030F0010031E0000001E0027050F00ED
:1037D00017041E0010030F0000001E0040031E000F
:1037E00070030F0075051E0075050F0070031E00A5
:1037F00000001E00DC030F0075051E0075050F009C
:1038000075051E0027051E0097041E0017041E00E4
:1038100000001E0000003C0027050F0017041E00DA
:1038200010030F0000001E0040031E0070030F0075
:1038300075051E0075050F0070031E0000001E00B8
:10384000DC031E00E0061E00E0061E00E0061E006F
:1038500020061E0075051E0027050F0017041E0018
:1038600070030F0010031E0000001E0027050F004C
:1038700017041E0010030F0000001E0040031E006E
:1038800070030F0075051E0075050F0070031E0004
:1038900000001E00DC030F0075051E0075050F00FB
:1038A00075051E0027051E0097041E0017041E0044
:1038B00000001E0000003C0017040F0017041E004B
:1038C00017040F0000000F0017040F0097041E00DC
:1038D00027050F0017041E0070030F0010031E00C1
:1038E00000001E0017040F0017041E0017040F002D
:1038F00000000F0017040F0097040F0027050F00AA
:103900000000780017040F0017041E0017040F00B2
:1039100000000F0017040F0097041E0027050F007A
:1039200017041E0070030F0010031E0000001E008D
:1039300027050F0027051E0027050F0000000F00B8
:1039400017040F0027051E0020061E0000001E00A1
:1039500010031E0000001E0027050F0017041E00A4
:1039600010030F0000001E0040031E0070030F0034
:1039700075051E0075050F0070031E0000001E0077
:10398000DC031E00E0061E00E0061E00E0061E002E
:1039900020061E0075051E0027050F0017041E00D7
:1039A00070030F0010031E0000001E0027050F000B
:1039B00017041E0010030F0000001E0040031E002D
:1039C00070030F0075051E0075050F0070031E00C3
:1039D00000001E00DC030F0075051E0075050F00BA
:1039E00075051E0027051E0097041E0017041E0003
:1039F00000001E0000003C0000001E0000005200FD
:103A000093023C0093021E004B021E000B023C007E
:103A10000B021E00B8011E004B021E0093021E0086
:103A20004B021E0093021E0088013C0088013C00EE
:103A3000B8013C00B8011E0088011E00B8013C001E
:103A40000B023C0010031E0070031E0093021E00B8
:103A500010031E004B023C004B023C0093023C0052
:103A600093021E004B021E0093023C0010033C0018
:103A700070031E0070031E0070031E0017041E005A
:103A800070033C0010031E0093021E004B023C001A
:103A90004B021E0093021E0010033C0088013C00F4
:103AA0004B021E0093021E004B021E0093021E00DA
:103AB0000B023C000B023C0093023C0093021E00F0
:103AC0004B021E0093023C0010033C0070031E00DA
:103AD00017041E0070031E0010031E0070033C003C
:103AE00010031E0093021E004B023C004B021E00FE
:103AF00093021E0010033C0088013C004B021E0094
:103B000093021E004B021E0093021E000B023C009B
:103B10000B023C004B021E004B021E004B021E001B
:103B200093021E0010033C0010031E0070031E00D1
:103B300017043C0070033C0017043C0017043C00D1
:103B400000003C00000025000B0228004B0228006A
:103B5000930228000B0228000B0228004B022800C9
:103B6000930228000B02280093022800BA022800C2
:103B7000100328000000280093022800BA02280041
:103B80001003280000002800100314007003140024
:103B900010031400BA021400930228000B0228003C
:103BA000100314007003140010031400BA02140070
:103BB000930228000B0228000B022800880128002D
:103BC0000B022800000028000B02280088012800B2
:103BD0000B02280000002800000000000000000088
:103BE0004C400000000202020000207C28283E20F9
:103BF000006C4A7424000C523C7C5270304C7A6C3D
:103C000050400002000000000000007C82000042E2
:103C10003C000000001838101800000010181000B8
:103C200000C0000000000808080808080040000064
:103C30000000004030080600007C42427C0000008A
:103C4000447C0000006462524C000064424A7C00E4
:103C50000010287C2000006C4C4C7000007C4A4A0C
:103C600074000004641C0400007C4A527C00005C68
:103C700052523C000000484800000000C80000000C
:103C800000182824420000181818180000422428A0
:103C90001800000462520C0018647A566C18403008
:103CA0001C1C7000007C54545C2018644242422466
:103CB000007C44442418007C54544400007C1414B8
:103CC0001C04384442426400007C10107C00000058
:103CD0007C440000808080FC0400007C08344000AC
:103CE000007C40404000704C70107C00007C08104C
:103CF0003C00186442424438007C14140C043844DC
:103D00006242C438007C14146C00004C4A527400A7
:103D100004047C040404007C40407C00000C30302F
:103D20000C00003C143C1C040044283844000004EF
:103D3000780804000064544C44000000FE828000B7
:103D4000000608304000008082FE000000010101F2
:103D50000100808080808080000101000000006000
:103D600058587040007E4848700000704848400035
:103D7000007048487E4000706868500000087C0C65
:103D80000C0000F0E8E8D808007E08087000000881
:103D900078400000008080887A00007E103848005B
:103DA00000007E4000007848487048700878080895
:103DB000700000704848700008F8484870000070B3
:103DC0004848F0000848700808000050586868002B
:103DD00000087C48480008784040784008182020B7
:103DE0001800083828383808004838384800009843
:103DF000A06018080048685848000000007E800055
:103E0000000000FF000000807E00000000010102B1
:103E100002000000000000000000000000000000A0
:103E20000000000000F80000000000000033000067
:103E3000000000100C02100C020000000000000046
:103E400000000040C07840C0780000043F04043FF8
:103E5000040000708888FC08300000182020FF2132
:103E60001E00F008F0806018000000310C031E21D5
:103E70001E0000F00888700000001E21232C192766
:103E8000211000120E0000000000000000000000E1
:103E90000000000000E018040200000000071820E5
:103EA000400000020418E000000000402018070055
:103EB0000000404080F0804040000202010F0102FB
:103EC000020000000000E0000000000101010F01FD
:103ED00001010000000000000000009070000000E0
:103EE00000000000000000000000000101010101CD
:103EF0000100000000000000000000303000000061
:103F0000000000000000C038040000601807000036
:103F1000000000E010080810E000000F1020201042
:103F20000F0000001010F8000000000020203F20CB
:103F30002000007008080808F00000302824222122
:103F40003000003008080888700000182021212265
:103F50001C000000804030F8000000060524243FCB
:103F6000242400F8888888080800001920202011DF
:103F70000E0000E0108888900000000F1120202023
:103F80001F0000180808886818000000003E0100A3
:103F900000000070880808887000001C222121227F
:103FA0001C0000F008080810E00000011222221195
:103FB0000F00000000C0C000000000000030300012
:103FC00000000000008000000000000000E0000091
:103FD00000000000804020100800000102040810CA
:103FE0002000004040404040400000020202020227
:103FF0000200000810204080000000201008040289
:104000000100007048080888700000000030370088
:104010000000C030C828E810E000071827282F2823
:1040200017000000C038E0000000203C23020227F7
:10403000382008F8888888700000203F2020201150
:104040000E00C0300808080838000718202020108B
:10405000080008F808080810E000203F2020201081
:104060000F0008F88888E8081000203F202023204F
:10407000180008F88888E8081000203F2000030096
:104080000000C03008080838000007182020221E51
:10409000020008F808000008F808203F210101216B
:1040A0003F20000808F8080800000020203F2020DA
:1040B000000000000808F8080800C08080807F0029
:1040C000000008F888C028180800203F2001263882
:1040D000200008F8080000000000203F20202020D9
:1040E000300008F8F800F8F80800203F013E013FD2
:1040F000200008F830C00008F808203F200007180A
:104100003F00E01008080810E0000F1020202010E9
:104110000F0008F808080808F000203F21010101FD
:104120000000E01008080810E0000F1028283050A8
:104130004F0008F8888888887000203F2000030C12
:10414000302000708808080838000038202121221B
:104150001C00180808F8080818000000203F20007C
:10416000000008F808000008F808001F20202020A0
:104170001F000878880000C83808000007380E01C2
:10418000000008F800F800F8080000033E013E03B4
:104190000000081868808068180820302C03032C61
:1041A00030200838C800C83808000000203F200030
:1041B000000010080808C8380800203826212020F0
:1041C0001800000000FE020202000000007F4040D4
:1041D0004000000438C00000000000000001063864
:1041E000C00000020202FE000000004040407F00CC
:1041F00000000000040202040000000000000000B3
:1042000000000000000000000000808080808080AE
:104210008080000202040000000000000000000096
:104220000000000080808000000000192424123F5C
:10423000200010F0008080000000003F11202011BD
:104240000E000000008080800000000E1120202061
:104250001100000080808090F000001F20202010BE
:104260003F200000808080800000001F2424242440
:104270001700008080E0909020000020203F202048
:1042800000000000808080808000006B94949493F4
:10429000600010F0008080800000203F210000209E
:1042A0003F2000809898000000000020203F202040
:1042B0000000000000809898000000C08080807F8F
:1042C000000010F0000080808000203F240629308C
:1042D0002000001010F8000000000020203F2020E7
:1042E00000008080808080808000203F20003F2070
:1042F000003F8080008080800000203F210000205F
:104300003F200000808080800000001F20202020AF
:104310001F00808000808000000080FF912020111D
:104320000E000000008080008000000E112020910F
:10433000FF80808080008080800020203F2120003E
:104340000100000080808080800000332424242429
:104350001900008080E0808000000000001F202005
:1043600010008080000000808000001F20202010AE
:104370003F20808080008080800000030C300C0390
:1043800000008080008080008080010E300C0738A3
:10439000060100808080008080000020310E2E31D8
:1043A0002000808080000080808000818678180650
:1043B000010000808080808080000021302C22213C
:1043C00030000000000000FC020200000000013E7E
:1043D000404000000000FF00000000000000FF005F
:1043E00000000202FC000000000040403E0100000E
:1043F00000000002010202040200000000000000B0
:104400000000404424147F94240024147F14244486
:1044100040000080888442452911110905030000ED
:1044200000000010101010101116109050301000E5
:1044300000000040201010284442414040404040CD
:10444000400000005E52565A52FE525A56525E00CA
:10445000000081859391919395F99193959193851E
:104460008100101010FF109004040404FC040404E4
:1044700004000444827F0100000040807F000000AF
:104480000000202020FF202080F88040FF2010F036
:1044900000001030100F0808003F40405F424443C6
:1044A000780000007E4A4A494040404A4A4A7E001D
:1044B00000000000FF80491200FF804912003F40C9
:1044C000F00000100C0576545457D4D4F685140C23
:1044D0000000001015151555957F141414141410B0
:1044E00000001010D0FF901000FE020202FE00003B
:1044F0000000040300FF0083601F0000003F4040F5
:104500007800000000000000000000000000000033
:10451000000000000000000000000000000000009B
:10452000000000000000000000000000000000008B
:10453000000000000000000000000000000000007B
:104540000000000000000000000600000000000065
:10455000001E00000000000000DE0000000000005F
:1045600000D800000000000000D80000000000009B
:1045700000D800000000000000DE00000000000085
:1045800000FE00000000000000F600000000000037
:1045900000720000000000000000000000000000A9
:1045A000007C00000000000000FE00000000000091
:1045B00000C600000000000000C60000000000006F
:1045C00000C600000000000000FE00000000000027
:1045D000007C00000000000000000000000000005F
:1045E000001E00000000000000DE000000000000CF
:1045F00000D600000000000000D60000000000000F
:1046000000D600000000000000D6000000000000FE
:1046100000DE40000000000000FE6000000000100E
:10462000006C70000000003000007800000000F016
:10463000007C7C00000007F000FE7E0000003FF0E0
:1046400000C67F000001FFF000C67F80000FFFF072
:1046500000C67FC0007FFFF000FE7FE003FFFFF099
:10466000007C7FF03FFFFFF000027FF83FFFFFF08C
:1046700000067FFC3FFFFFF0001E7FFE3FFFFFF0C4
:1046800000BC7FFF3FFFFFF000E07FFFBFFFFF8028
:1046900000F87FFFFFFFFC00003E7FFFFFFFE00010
:1046A000000E7FFFFFFF000000B87FFFFFF8000053
:1046B00000E07FFFFFF0000000FE7FFFFFF0000042
:1046C000001E7FFFFFF0000000027FFFFFF00000F0
:1046D00000007FEFFFF0020000067FE7FFF002001E
:1046E000000E7FE3FFF00200001C7FE1FFF80300F3
:1046F00000BA7FE0FFFC030000F67FE07FFE03804E
:1047000000E67FE03FFF038000F67FE03FFF83C0CD
:10471000003E7FE03FFFC3C0000E7FE03FFFE3E0CD
:1047200000027FE03FFFF3E000007FE03FFFFBF08F
:1047300000027FE03FFFFFF000667FE03FFFFFF8F1
:1047400000F67FE03FFFFFF800D67FE03FFFFFFC71
:1047500000D67FF07FFFFFFC00D67FF8FFF7FFFE5B
:1047600000D67FFFFFF3FFFE00DE3FFFFFE1FFFF0C
:10477000008C3FFFFFE0FFCF00401FFFFFC07FC75F
:1047800080C01FFFFFC03FC380C00FFFFF801FC15D
:10479000C0FE07FFFF000FC0C0FE03FFFE0007C002
:1047A00060C001FFFC0003C020C0007FF00001C01A
:1047B0000086000F800000C00016000000000040CE
:1047C00000D600000000000000D60000000000003D
:1047D00000D600000000000000D60000000000002D
:1047E00000D600000000000000D000000000000023
:1047F00000C00000000000000006000000000000F3
:10480000001E00000000000000DE000000000000AC
:1048100000D800000000000000D8000000000000E8
:1048200000D800000000000000DE000000000000D2
:1048300000DE00000000000000F6000000000000A4
:1048400000720000000000000000000000000000F6
:10485000006200000000000000F600000000000000
:1048600000F600000000000000D60000000000007C
:1048700000D600000000000000D60000000000008C
:1048800000DE000000000000008C000000000000BE
:104890000000000000000000000000000000000018
:1048A0000000000000000000000000000000000008
:1048B00000000000000000000000000000000000F8
:1048C00000000000000000000000000000000000E8
:1048D00000000000000000000000000000000000D8
:1048E00000000000000000000000000000000000C8
:1048F00000000000000000000000000000000000B8
:1049000000000000000000000000000000000000A7
:104910000000000000008080808080808080808097
:104920008080000000000000000000000000000087
:104930000000000000000000000000000000000077
:104940000000000000000000000000000000000067
:104950000000000000000000000000000000000057
:104960000000000000000000000000000000000047
:104970000000000000000000000000000000000037
:10498000000000000080808080000000001C3E3697
:104990003E1E068383C3C1E1E1E1E1E1E1C1816142
:1049A000E1C3C38387060E0C1C38302000000000D2
:1049B000000000000000000000000000303030B0B7
:1049C000F0FEFEB0B030003030B0FEFEF0B030305F
:1049D0003000000000808080808080808CBCF8E007
:1049E000808080808080000000000000F8F8183887
:1049F00078D8D8D8F8F8F0C0C060607030F0F8000F
:104A000000001C3E7FFFFFFFFF7F7EF0F0F0F8FC10
:104A1000FE7F7FEFEFEFEFEDFDFBD7CFDFFBF7FE84
:104A2000F30F0F0F8FC7E2FCFCF0E08000041E3E86
:104A3000FCE0000000000000000000040E0603136C
:104A40003177F7F1B33736373331B7F7F0712307E2
:104A50000E0400000001010101010181C1C1617169
:104A600039190D0F07030100000060606BFFFFFFA5
:104A70007FFFFFFB7F7F7FFBFFFF7FFFFFFF6B6001
:104A80006000000020E0E000000000FEFFFFFFFFEC
:104A9000FFFFFFFFFDE080E0F0F0E0E1E3C3030390
:104AA000010000FEFFFFFFFFFFFFFFFF7800000097
:104AB00001FFFF0000000000000000000070303027
:104AC000303818180D0D0E06070301010000000014
:104AD00000000030381C0E060E1F1B313130303004
:104AE0003030303030303030300060636F6D6C6C9F
:104AF0006C6C6D6F7F7F7F6D6D6C6C6C6D6D6F62BC
:104B000020000000000F3FF8E08000030F3F7FFF10
:104B1000FFFFFFFFFFFEF79FFFFFFFFF7F9FC3E049
:104B2000F0F8FCFFFFFFFFFFFF3F1F070000C0F092
:104B30007E1F030000000000000000FEFEFE0606CF
:104B4000FEFCF80000FEFE06060EFCF80000FEFE6D
:104B5000060606060000E0FC3EFEF0000000FEFE39
:104B6000F88000F0FEFE000000000000FEFE0000E5
:104B7000FEFEFCF08000FEFE0000FEFEE0F83E0EB1
:104B8000020000000000000003070E1C3870E0C0A7
:104B9000C18387070F0F1F0313111D1E1F1F1F1F28
:104BA0001F0F0F0747C3C3F1E08000000E0F030182
:104BB0000000000000000000000000FFFFFF8080F8
:104BC000FFFF7F0000FFFF023FFFE1810000FFFFCA
:104BD0008383838000F8FF1F0007FFFE0000FFFFB4
:104BE000030F0F07FFFF000080800000FFFF0000A1
:104BF000FFFFFF073FFCFFFF0000FFFF1F7CE0807F
:104C000000000000000000000000000000000000A4
:104C10000101030303070606060E0E0E0E0E06061E
:104C20000606070303000301010100000000000065
:104C3000000000000000000000000001010101016F
:104C4000010100000001010000000101000001015C
:104C50000101010100010100000001010100010149
:104C6000000000000101000001010000010100003E
:104C7000010101000000010100000101000001012B
:104C80000000000000000000000000000000000024
:104C90000000000000000000000000000000000014
:104CA0000000000000000000000000000000000004
:104CB00000000000000000000000000000000000F4
:104CC00000000000000000000000000000000000E4
:104CD00000000000000000000000000000000000D4
:104CE00000000000000000000000000000000000C4
:104CF00000000000000000000000000000000000B4
:104D00000000000000000000000080C0E0F0F8FC9F
:104D1000FCFCFCFCFCF8F0E0C0800000000000009F
:104D2000000000000000F8FCFEFFFF7F3F1F0FFFA8
:104D3000FFFFFFFF070F1F3F7FFFFFFEFCF8000094
:104D4000000000000000000000000000000000FF64
:104D5000FFFFFFFF00000000000000000000000057
:104D60000000000000000000000000000000003F04
:104D70003F3F3F3F00000000000000000000000037
:104D80000000000000000000000000000000000023
:104D9000FCFCFCFCFC000000000000000000000027
:104DA0000000000000000000000000000000000003
:104DB000FFFFFFFFFF0000000000000000000000F8
:104DC0000000000000001F3F7FFFFFFEFCF8F0E046
:104DD000FFFFFFFFFFF0F8FCFEFFFF7F3F1F00001B
:104DE000000000000000000000000103070F1F3F4B
:104DF0003F3F3F3F3F1F0F0703010000000000003F
:104E00000000000000000000000080C0E0F0F0F0B2
:104E1000F0F00000000000000000000000000000B2
:104E200000000000E0F0F8FCFEFFFFFFFFDFCFC74F
:104E3000C3C1C0C0C0C0C0C0C0C0C0C0C0C0C0C06E
:104E400000000000070F1F3F7FFFFFFFFFFFF7E796
:104E5000C7870707070707070707070707070707A2
:104E6000000000000000000000000103070F0F0F0A
:104E70000F0F000000000000000000000000000014
:104E80000000000000000000000000000000000022
:104E90000000F0F0F0F0F0E0C08000000000000042
:104EA00000000000E0E0E0E0E0E0E0E0E0E0E0E082
:104EB000E0E0E1E3E7EFFFFFFFFFFFFEFCF8F0E0DB
:104EC00000000000030303030303030303030303BE
:104ED000030383C3E3F3FBFFFFFFFF7F3F1F0F07C6
:104EE00000000000000000000000000000000000C2
:104EF00000000F0F0F0F0F0703010000000000005C
:104F000000000000000080C0E0F0F8F87C7C3C3C31
:104F10003C3C3C3C3C3C7C7CF8F8F0E0C080000031
:104F200000000000FCFFFFFF0F0301000080F0FE07
:104F3000FE3F7FFEFEE000000001030FFFFFFFFCCD
:104F4000000000003FFFFFFFF0C08000787F7F3F40
:104F50000707070F7F7F7E700080C0F0FFFFFF3FD5
:104F60000000000000000103070F1F1F3E3E3C3CF5
:104F70003C3C3C3C3C3C3E3E1F1F0F0703010000F5
:104F800000000000000080C0E0F0F8F87C7C3C3CB1
:104F90003C3C3C3C3C3C7C7CF8F8F0E0C0800000B1
:104FA00000000000FCFFFFFF0F03010000FEFEFFFA
:104FB000CFCFCEFEFEFE7C000001030FFFFFFFFC03
:104FC000000000003FFFFFFFF0C08000007F7F7FF8
:104FD0007171717B7F3F1F000080C0F0FFFFFF3FBA
:104FE0000000000000000103070F1F1F3E3E3C3C75
:104FF0003C3C3C3C3C3C3E3E1F1F0F070301000075
:1050000000000000000080C0E0F0F8F87C7C3C3C30
:105010003C3C3C3C3C3C7C7CF8F8F0E0C080000030
:1050200000000000FCFFFFFF0F03010000E0FCFE9A
:10503000FE1E0F0F0E0E0E000001030FFFFFFFFC00
:10504000000000003FFFFFFFF0C0800000071F3F8F
:105050007F787070707838000080C0F0FFFFFF3FED
:105060000000000000000103070F1F1F3E3E3C3CF4
:105070003C3C3C3C3C3C3E3E1F1F0F0703010000F4
:1050800000000000000080C0E0F0F8F87C7C3C3CB0
:105090003C3C3C3C3C3C7C7CF8F8F0E0C0800000B0
:1050A00000000000FCFFFFFF0F03010000FEFEFFF9
:1050B0000F0F0F1EFEFCF8000001030FFFFFFFFCA7
:1050C000000000003FFFFFFFF0C08000007F7F7FF7
:1050D0007070787C3F3F1F000080C0F0FFFFFF3FF3
:1050E0000000000000000103070F1F1F3E3E3C3C74
:1050F0003C3C3C3C3C3C3E3E1F1F0F070301000074
:1051000000000000000080C0E0F0F8F8FCFCFCFCAF
:10511000FCFCFCFCFCFCFCFCF8F8F0E0C0800000AF
:1051200000000000FCFFFFFFFFFFFFFFFFFFFFFF8E
:10513000FFFFFFFFFFFFFFFFFFFFFFFFFFFFFFFC82
:10514000000000003FFFFFFFFFFFFFFFFFFFFFFF2B
:10515000FFFFFFFFFFFFFFFFFFFFFFFFFFFFFF3F1F
:105160000000000000000103070F1F1F3F3F3F3FEB
:105170003F3F3F3F3F3F3F3F1F1F0F0703010000DF
:1051800000000000000080C0E0F0F8F8FCFCFCFC2F
:10519000FCFCFCFCFCFCFCFCF8F8F0E0C08000002F
:1051A00000000000FCFFFFFFFFFF0F0703010000EE
:1051B0000000000000000103070FFFFFFFFFFFFCDE
:1051C000000000003FFFFFFFFFFFF0E0C080000095
:1051D00000000000000080C0E0F0FFFFFFFFFF3F85
:1051E0000000000000000103070F1F1F3F3F3F3F6B
:1051F0003F3F3F3F3F3F3F3F1F1F0F07030100005F
:10520000000000000000000000000000000000009E
:10521000000000000000000000000000000000008E
:105220000000000001000000020000000300000078
:105230000400000006000000070000000800000055
:1052400009000000303132333435363738394142C5
:1052500043444546403058003031323334353637D8
:105260003839616263646566403078000400000884
:10527000000000000000000200010000100000001B
:10528000A052000800000020800000000401000877
:105290002053000880000020F80C000020010008C6
:1052A00000000000000000000000000000000000FE
:1052B000C3CED6AEC4ABB4F2B5D8CAF3D5C6BBFA2A
:1052C00000AE001040B081FFA1A6A83FC8D300D512
:1052D00080D805D9F1DA12D8308D14AF0101000061
:1052E000000000000000000000000000CF07A3063F
:1052F0007705AF04E70383031F03BB025702F301E3
:105300008F012B01C7009500000000000000000085
:105310000100000004000000000000000024F40070
:04000005080000C12E
:00000001FF
